:020000040800F2
:1000000030640020E10100080B1F0008411E0008B9
:10001000091F00082B0D00080D2300080000000038
:10002000000000000000000000000000490100087E
:100030002D0D0008000000008D010008551F00086C
:10004000FB010008FB010008FB010008FB010008A0
:10005000FB010008FB010008FB0100082F0D000850
:10006000FB010008FB010008FB010008FB01000880
:10007000FB010008FB010008FB010008FB01000870
:10008000FB010008FB010008FB010008FB01000860
:10009000FB010008FB010008FB010008FB01000850
:1000A000FB010008FB010008FB010008FB01000840
:1000B000FB010008FB010008FB010008FB01000830
:1000C000FB010008FB010008FB010008FB01000820
:1000D000FB01000801230008FB010008FB010008E8
:1000E000FB010008FB010008FB010008FB01000800
:1000F000FB010008FB010008FB010008FB010008F0
:10010000FB010008FB010008FB010008FB010008DF
:10011000FB010008FB010008FB010008E11F0008CB
:10012000FB010008FB010008FB010008FB010008BF
:10013000DFF810D000F020FB00480047D53F000852
:10014000AFF3008030640020224B19680868B0E8E3
:10015000F00F80F30988BFF36F8F4FF0000080F33A
:1001600011884EF00D0E7047000000000648006830
:10017000006880F3088862B661B6BFF34F8FBFF3A3
:100180006F8F00DF00BF00BF08ED00E0EFF30980D4
:10019000BFF36F8F0F4B1A6820E9F00F106008B59E
:1001A0004FF0500080F31188BFF34F8FBFF36F8F74
:1001B00005F0B6F94FF0000080F31188BDE8084063
:1001C00019680868B0E8F00F80F30988BFF36F8FF3
:1001D000704700BF1C000020EFF30580704700004F
:1001E0000648804706480047FEE7FEE7FEE7FEE7D1
:1001F000FEE7FEE7FEE7FEE7FEE7FEE7DF1F00089B
:1002000031010008202A04DB203A21FA02F0002103
:10021000704721FA02F3D040C2F120029140084316
:100220001946704740EA01039B0703D009E008C95B
:10023000121F08C0042AFAD203E011F8013B00F8AB
:10024000013B521EF9D27047D2B201E000F8012BF7
:10025000491EFBD270470022F6E710B513460A4646
:1002600004461946FFF7F0FF204610BD421C10F867
:10027000011B0029FBD1801A704710B5002200E055
:10028000521C835C8C5CA34201D1002BF8D1D8B204
:10029000E1B2401A10BD000070B50F4D00B92868DA
:1002A000002412E00A4602E09E4203D0521C13785A
:1002B000002BF9D1DAB2224305D02BB124B10021B1
:1002C00000F8011B04E00446401C0678002EE9D12A
:1002D0002860204670BD0000A800002030B50B4605
:1002E000014600202022012409E021FA02F59D4266
:1002F00005D303FA02F5491B04FA02F52844151E3A
:10030000A2F10102F1DC30BD2DE9F05F05460020CD
:1003100092469B4688460646814640241BE0284676
:10032000414647462246FFF76DFF53465A46C01ADC
:10033000914110D311461846224600F02FFA2D1A8B
:1003400067EB01084F4622460120002100F026FA03
:1003500017EB00094E41201EA4F10104DFDC4846E2
:1003600031462A464346BDE8F09F00000FB4002303
:1003700000B589B00CA900910B996FF00042CB60D9
:100380001E4B06931E4B07930423CDE901321D4AF1
:10039000089202466B46002000F0BAFA09B05DF8F8
:1003A00014FB70B586B006464FF0FF300091CDE9E2
:1003B0000101002015460C4604903246694604A807
:1003C000FFF7D4FF02460498211825B108B108466A
:1003D00000E020462860049800280DD0002A02DDA5
:1003E0000098884208D0081B0094CDE901043246E9
:1003F000694604A8FFF7BAFF06B070BD490B0008B4
:10040000670B0008DF0700082DE9FE4F804681EAF0
:100410000300C00F0C46009021F0004123F000457E
:10042000B8EB0200A94105D24046214690461C4641
:100430000B46024623F00040104347D0270DC7F378
:100440000A00C3F30A510290401A019040286BDA67
:10045000C3F3130040F4801B0098924620B10023A0
:10046000D2EB030A63EB0B0B01985946C0F1400233
:10047000504600F093F906460D4650465946019AFB
:1004800000F09BF910EB08006141002487EA11524B
:1004900084EAE7731A4340D0009A62B3019A012AB2
:1004A0004FEA075215DC001B61EB02014FF00042DE
:1004B00002EA0752CDE90042001C41F580113246A4
:1004C0002B4600F070FB03B0BDE8F08F404621469C
:1004D000F9E7001B61EB0201001C41F580130018D5
:1004E0005B412018A2F5001747EB030140EAD570E5
:1004F000B6196D4111E06D084FEA360645EAC07540
:100500004FEA0752001B61EB0201001C41F580110C
:1005100049084FEA30000019514132462B4603B0DA
:10052000BDE8F04F00F030BB0098012240000023EE
:10053000D0EB020263EBE073009821464FEAE074CF
:10054000B8EB000061EB0401E9E783F000435BE7EF
:1005500081F0004158E72DE9FE4F81EA030404F0E1
:10056000004421F0004100944FF0000B23F00043C1
:1005700050EA01045ED052EA03045BD0C3F30A548C
:10058000C1F30A552C44A4F2F3340194A0FB0254A5
:10059000C1F3130141F48011C3F3130343F4801337
:1005A00001FB024400FB034E840A970A44EA81548B
:1005B00047EA8357A4FB076802958D0A05FB078568
:1005C0004FEA932C04FB0C542705029D4FEA065872
:1005D00047EA1637B5EB08056EEB070C870E920E4F
:1005E00047EA811742EA8312A7FB0201B6EB0B012F
:1005F00064EB00042B0D43EA0C335E1844EB1C50F3
:10060000DA465146E7FB0201C5F313044FEA0B3308
:1006100043EA14534FEA0432019C43EA0603A4F16F
:100620000C040294009CCDE900B400F0BCFA03B0C5
:10063000BDE8F08F00200146F9E72DE9F04D81EA91
:10064000030404F0004B21F0004514464FF0000A6B
:1006500023F0004150EA050220D054EA01021DD0E7
:10066000C5F30A570246C5F31303C1F31300C1F3E0
:100670000A5640F4801543F48013A7EB0608101BBC
:10068000D64608F2FD3873EB050002D308F10108E5
:1006900001E092185B41B8F1000F03DA0020014637
:1006A000BDE8F08D00204FF48011064684460EE030
:1006B000171B73EB050705D3121B63EB05030643FA
:1006C0004CEA010C49084FEA300092185B4150EAAD
:1006D0000107EDD152EA030012D082EA040083EA56
:1006E0000501084305D0101BAB4106D201220023AF
:1006F00006E000224FF0004302E06FF001025310C9
:100700001AEB06004CEB085110EB0A0041EB0B0111
:10071000BDE8F04D00F038BAC1F30A52C1F313013D
:1007200040F2FF3341F480119A4202DA0020014680
:10073000704740F233439A42A2F2334202DC524203
:10074000FFF760BD00F02AB830B5041E71F1000457
:1007500004DB4FF00044404264EB0101141E73F1CE
:10076000000405DB1C464FF00043524263EB0403D8
:10077000994208BF904230BD064C074D06E0E06844
:1007800040F0010394E8070098471034AC42F6D3D8
:10079000FFF7D2FC646B0008846B0008202A04DB9E
:1007A000203A00FA02F1002070479140C2F1200384
:1007B00020FA03F3194390407047202A06DBCB1739
:1007C000203A41FA02F043EAE07306E041FA02F30C
:1007D000D040C2F120029140084319467047C0B290
:1007E0004FF4F05100F02EBA2DE9FF4F087883B096
:1007F0009946FF2805D0491C2D2804D0002400204C
:1008000008E000200BE00124F9E700EB800003EB97
:100810004000491C0B78FF2BF7D104B14042002364
:100820000293147819461D462D2C01D02B2C04D18F
:10083000521C2D2C13D000240294AA461478FF2CAD
:100840000FD00A25A3FB057801FB05814FF0000CB2
:1008500003FB0C11521CE3194AEB0101EEE70124E2
:10086000EAE7814453EA010002D019F5C87F06DAAD
:1008700003980021C0E9001107B0BDE8F08F002502
:10088000AE4E2F46DFF8B882184600F0EFF9CDE9FA
:100890000001B9F1000002DAC9F1000400E00446E9
:1008A0000023A74A1AEB030B42EB045A12E0E007BD
:1008B00007D02A46334638464146FFF74CFE0746E6
:1008C00088462A46334610461946FFF744FE054639
:1008D0000E466410002CEAD1DDE90001B9F1000FE9
:1008E0005A46534606DAFFF7A8FE3A464346FFF754
:1008F000A4FE05E0FFF72FFE3A464346FFF72BFE26
:10090000029A0AB181F00041039AC2E90001B3E7FB
:100910002DE9FF4F1F468DB0D7E901464FF0FF3854
:100920002E2045464FF000090B90B9696D1C0E98BA
:100930008847396A824688470028F6D1BAF1FF3FD6
:100940000AD024F4D064002E11DDBAF12B0F08D0A8
:10095000BAF12D0F0BD102E0404611B08DE744F4FF
:100960008064B9696D1C0E9888478246761E694678
:10097000600501D52D2000E02B208DF8000001F14D
:10098000010B0DF1200809E0B9696D1C0E9888472C
:1009900082460F9844F40074761E0560002E02DD36
:1009A000BAF1300FF0D00B998A453ED144F0800463
:1009B00006E00F99681CA9F1010944F4007408606D
:1009C000B9696D1C761E0E98884782463028F0D093
:1009D0002BE00B998A4505D1200603D444F080040E
:1009E000761E18E0504601F099FD08B30DF1130191
:1009F000761E44F400748B4508D2AAF130000BF83F
:100A0000010B200607D5A9F1010003E0200602D45E
:100A100009F101008146A00502D50F99681C086004
:100A2000B9696D1C0E9888478246002ED1DC53E0D0
:100A3000002E51DDBAF1650F02D0BAF1450F4BD14E
:100A4000A00549D5B9696D1C24F44074761E0E9832
:100A500088478246002E0CDD2B2804D0BAF12D0FDA
:100A600007D144F48074B9696D1C0E98884782469A
:100A7000761EE00501D52D2100E02B2108F8011B91
:100A8000CDF82C8021E00DF12901761E44F400748C
:100A900088450CD2AAF1300010F0FF0088F8000061
:100AA00002D10B99884509D908F1010806E0E00553
:100AB00001D5244801E042F20F708146B9696D1CEE
:100AC0000E98884782460F980560002E04DD504638
:100AD00001F024FD0028D6D1F9690E988847FF203F
:100AE0008BF8000088F800000020069007904B4625
:100AF0006A4608A906A8FFF777FEA00502D46FF0A2
:100B000001002AE714F0240F0AD0E00714D1DDE930
:100B100006123868031D3B600068C0E900120BE054
:100B2000DDE9060100F0AEF80146E00704D13868BF
:100B3000021D3A600068016028460EE7000014407C
:100B40000000F03FF1D8FFFF426842B1016811F8A0
:100B5000013B23B1521EC0E9001218467047012123
:100B6000C160881E704742685AB1C368016843B9C2
:100B700083688B4205D0491E521CC0E90012002038
:100B800070474FF0FF30704710B5141E73F100042A
:100B900008DA401C41F1000192185B411A4301D16F
:100BA00020F0010010BD2DE9F04D92469B4611B199
:100BB000B1FA81F202E0B0FA80F220329046FFF7FB
:100BC000EDFD04460F4640EA0A0041EA0B01534698
:100BD0005A46084313D0114653EA010019D0C8F110
:100BE00040025046FFF70EFB05460E46504659465A
:100BF0004246FFF7D3FD084305D0012004E020461C
:100C00003946BDE8F08D0020054346EAE0762C43E6
:100C100037430A986305E40AA0EB08000022FD0AA6
:100C200044EA47540A3002D500200146E9E70105AD
:100C300010196941DDE9084500196941BDE8F04D29
:100C4000A2E700007F2801D9002208E0064A02EB53
:100C50005002C007127800D1120902F00F020120E1
:100C600090400840704700002E6200080EB540F228
:100C7000334202920022CDE900221346FFF793FF90
:100C800003B000BD01F0004330B421F0004150EA50
:100C9000010206D00A0DA2F56072C1F31301002A09
:100CA00002DC30BC00207047440F44EAC104C1009C
:100CB000E01830BC00EBC250AFF300800029A8BFA1
:100CC0007047401C490008BF20F00100704710B475
:100CD000B0FA80FC00FA0CF050EA010404BF10BC2A
:100CE000704749B1CCF1200421FA04F411FA0CF157
:100CF00018BF012121430843A3EB0C01CB1D4FEA90
:100D000000614FEA102042BF002010BC704700EB8A
:100D1000C35010440029A4BF10BC7047401C4900B8
:100D200008BF20F0010010BC7047FEE770470220AA
:100D300000F0D6B872B6FEE710B590F82110002288
:100D4000022905D00421816380F82020012010BDF4
:100D500001680B6823F00E030B6001680B6823F039
:100D600001030B6090F84030C46B012101FA03F3DA
:100D7000636080F8211080F82020104610BD00002C
:100D80002DE9F05F90F821100024022903D00421FE
:100D90008163012485E001680A6822F00E020A607E
:100DA00001680A6822F001020A603F4E3E4FB21508
:100DB000DFF8F4C0DFF8F090DFF8ECA0DFF8E8B07F
:100DC000DFF8E4E00168783F13011502ACF1640C30
:100DD000A9F15009AAF13C0AABF1280BAEF1140EAF
:100DE0004FF48018B14227D9B9420ED0614512D0D4
:100DF00049451DD0514518D0594518D0714501D1EC
:100E0000424615E0294EB14201D1012210E0274EA1
:100E10001436B14201D110220AE0244E2836B142E4
:100E200006D0224A3C32914201D11A4600E02A46BD
:100E30001E49091F0A602BE0B94213D0614517D043
:100E4000494522D051451DD059451DD0714501D18C
:100E500042461AE0B14202D14FF0807215E0134EC3
:100E6000B14201D1012210E0104E1436B14201D13D
:100E700010220AE00D4E2836B14206D00B4A3C3211
:100E8000914201D11A4600E02A46074980394A605A
:100E9000012180F82110002180F82010416B01B160
:100EA00088472046BDE8F09F8000024008040240C9
:100EB00010B502280DD10221064800F019F928B911
:100EC000054800221146006803F000F8034902209B
:100ED000086010BD00080140040000201404014017
:100EE000044910B50A68024202D00860FFF7E0FF2B
:100EF00010BD0000140401402DE9F84FDFF8C8913F
:100F00000024A9F1040B23460F2709F1040AABF1D1
:100F1000040ED1E00125A54006EA0502AA4276D1D9
:100F2000DFF8A8C14E68A6EB0C0866452BD00DDC97
:100F3000032E34D005DC36B3012E19D0022E2FD16A
:100F40001BE0112E16D0122E2AD119E0B8F5881FF9
:100F500019D006DCB8F5803F15D0B8F5801F1FD139
:100F600011E0B8F5001F0ED0B8F5041F18D10AE043
:100F7000CB6815E0CB681B1D12E0CB6808330FE08F
:100F8000CB680C330CE08B682BB1012B4FF00803BE
:100F900003D0456104E0042302E0056100E0002382
:100FA000FF2A01D8064601E000F104064FEA840555
:100FB00001D9A5F12005D6F8008007FA05FC28EA3A
:100FC0000C0803FA05F548EA0508C6F800804D68E4
:100FD000ED0070D53E4DAE6946F00106AE61AD69DB
:100FE00024F0030605F0010500953A4D06EB050CCB
:100FF000DCF80850A607360F07FA06F825EA0805B8
:10100000DFF8D480404503D14FF0000825E052E0DE
:10101000DFF8C880404502D14FF001081DE0DFF83D
:10102000C080404502D14FF0020816E0DFF8B480DE
:10103000404502D14FF003080FE0DFF8AC80404597
:1010400002D14FF0040808E0DFF8A080404502D14B
:101050004FF0050801E04FF0060808FA06F848EAE4
:101060000508CCF808804D68D9F80060ED024D46BF
:1010700001D5164300E096432E604D68DAF8006013
:10108000AD02554601D5164300E096432E604D68EB
:10109000DBF80060AD035D4601D5164300E09643E2
:1010A0002E604D68DEF80060ED03754601D51643ED
:1010B00000E096432E60641C0A681646E2407FF406
:1010C00029AFBDE8F88F00000804014000001110AE
:1010D000001002400000014000080140000C0140E7
:1010E000001001400014014000180140001C0140A4
:1010F0008068084000D001207047000001488068E7
:10110000704700000C0000200248816802781144FA
:10111000816070470C000020074810B5016841F05D
:1011200010010160032000F0A7F80F2000F006F87E
:1011300000F050F8002010BD0020024030B50546F8
:101140001F4887B0C16941F02001C161C06906A98B
:1011500000F02000009001A800F036F90498B0B12A
:1011600000F052F940001749174AB0FBF1F1174857
:10117000491E0260416040F2E7320021C0E90321CC
:101180008160816100F018FB040003D015E000F0DD
:101190003BF9E8E70D4800F03DFB04000DD1372096
:1011A00000F03CF8102D07D200222946372000F02D
:1011B00043F80748056000E0012407B0204630BD31
:1011C0000010024040420F0000140040F8000020D0
:1011D000100000200F4808B5816941F001018161CC
:1011E000816901F001010091C16941F08051C16143
:1011F000C069002200F0805000900F21901E00F086
:101200001BF80548416821F0E06141F00071416040
:1012100008BD00000010024000000140002809DB6A
:1012200000F01F02012191404009800000F1E02000
:10123000C0F8001170470000F0B40E4B1B680C465C
:10124000C3F30223C3F10705042D00D90425191D9A
:10125000072901D2002300E0DB1E012606FA05F172
:10126000491E214099409E40761E16403143F0BCF5
:1012700001F072B80CED00E0064900F007020868C2
:101280004FF6FF03184040EA0220034A104308606B
:10129000704700000CED00E00000FA052DE9F04772
:1012A0000F46050061D0434E306800F00700B84299
:1012B00009D2306820F0070038433060306800F011
:1012C0000700B84251D128683B4C810712D540072E
:1012D00003D5606840F4E06060602878000703D5BB
:1012E000606840F4605060606068A96820F0F000B9
:1012F000084360602878C00728D06868012810D0AB
:101300002168022810D0890700292EDA616821F0AF
:10131000030101436160FFF7F1FE804641F2883925
:101320000DE021688903EFE78901EDE7FFF7E6FEAD
:10133000A0EB0801494502D90320BDE8F0876068A9
:10134000696800F00C00B0EB810FEFD1306800F05D
:101350000700B8420BD9306820F0070038433060EE
:10136000306800F00700B84201D00120E5E7287896
:10137000400705D56068E96820F4E06008436060D4
:101380002878000706D56068296920F4605040EA93
:10139000C100606000F058F86168084AC1F30311A9
:1013A000515CC8400649086006480068FFF7C6FE61
:1013B0000020C2E700200240001002401662000830
:1013C00018000020100000200F2202600C4A536811
:1013D00003F003034360536803F0F0038360536832
:1013E00003F4E063C36052684FF4E06303EAD2029F
:1013F00002610448006800F00700086070470000C0
:101400000010024000200240044805490068496875
:10141000044AC1F30221515CC84070471800002003
:101420000010024026620008044805490068496827
:10143000044AC1F3C221515CC84070471800002023
:1014400000100240266200080E4A51680E4801F062
:101450000C03042B11D0082B0FD10C48C1F383438C
:10146000C903C05C0AD55168084AC1F34041921EC5
:10147000515C054A5043B0FBF1F0704704494843C2
:10148000704700000010024000127A000662000857
:1014900000093D002DE9F84F040070D02078C04DC0
:1014A000C00749D06868C0F38100012807D0686888
:1014B000C0F38100022809D16868C00306D52868F6
:1014C000800339D560680028E7D035E06068B0F562
:1014D000803F0BD010B1B0F5A02F11D0286820F4B8
:1014E00080302860286820F4802002E0286840F4DA
:1014F00080302860606890B1FFF700FE06460AE081
:10150000286840F480202860F0E700BFFFF7F6FD70
:10151000801B642873D828688003F7D50CE0FFF798
:10152000EDFD064605E000BFFFF7E8FD801B6428DF
:10153000F0D828688003F7D420789A4E80074FF0BF
:1015400001094FF0000839D5686810F00C0F07D07A
:101550006868C0F38100022809D16868C00306D416
:101560002868800714D52069012808D110E0206977
:10157000B0B1C6F80090FFF7C1FD074605E00AE1EB
:10158000FFF7BCFDC01B0228C4D828688007F7D528
:101590002868616920F0F80040EAC10028600DE089
:1015A000C6F80080FFF7AAFD074604E0FFF7A6FD96
:1015B000C01B022823D828688007F7D420780007AA
:1015C0002CD57948A169D9B1C0F80090FFF796FDF4
:1015D000074604E0FFF792FDC01B02280FD8686A97
:1015E0008007F7D571484FF4FA510068B0FBF1F06D
:1015F000009000BF0098411E0091FAD20EE080E0FA
:10160000C0F80080FFF77AFD074604E0FFF776FD9B
:10161000C01B022875D8686A8007F7D42078400775
:1016200060D5E8690027C00008D4E86940F0805020
:10163000E861E869012700F0805000905C4801688B
:10164000C90513D40168834641F480710160FFF736
:1016500055FD824606E000BFFFF750FDA0EB0A00F3
:1016600064284ED8DBF80000C005F5D5E0680128F5
:101670000AD008B1052813D0286A20F0010028629A
:10168000286A20F0040002E0286A40F00100286285
:10169000E06841F2883B98B1FFF730FD82460BE0ED
:1016A000286A40F004002862EEE700BFFFF726FD3D
:1016B000A0EB0A0159455AD8286A8007F6D50CE0F4
:1016C000FFF71CFD824605E0FFF718FDA0EB0A01BD
:1016D00059454CD8286A8007F6D41FB1E86920F034
:1016E0008050E861E06988B36968C1F3810102292B
:1016F00044D00228C6F8608004D0FFF7FFFC0446FF
:1017000038E034E0FFF7FAFC074604E0FFF7F6FCA8
:10171000C01B02282BD828688001F7D4206AB0F5B6
:10172000803F05D16868A16820F4003008436860F4
:10173000D4E908010843696821F47411084368601A
:10174000C6F86090FFF7DAFC044606E025E000BF2B
:10175000FFF7D4FC001B022809D828688001F7D5C0
:101760001BE000BFFFF7CAFC001B022802D90320C0
:10177000BDE8F88F28688001F4D40EE00128F7D086
:101780006868226A00F48031914204D1616A00F4F1
:101790007010884201D00120EAE70020E8E700004D
:1017A0000010024000004242800442421800002023
:1017B000007000407047704710B5040003D094F8E3
:1017C0003D0010B107E0012010BD002084F83C006E
:1017D000204600F01EF8022084F83D00211D2068FC
:1017E00000F004FC012084F8460084F83E0084F8F0
:1017F0003F0084F8400084F8410084F8420084F8F7
:10180000430084F8440084F8450084F83D0000203B
:1018100010BD704790F83D10012901D0012070479C
:10182000022180F83D100168CA6842F00102CA60D6
:1018300000680E4988420ED00D4988420BD0B0F1A5
:10184000804F08D00B49884205D00B49884202D00E
:101850000A49884204D1816801F00701062903D0B2
:10186000016841F00101016000207047002C014037
:10187000003401400004004000080040000C00401B
:10188000704770B50446006801694FF00005C94310
:10189000890715D4C168C943890711D4E91E0161BC
:1018A00001202077206880698007204602D0FFF75A
:1018B000E7FF04E000F098F8204600F096F825775E
:1018C00020680169C943490717D4C168C94349075A
:1018D00013D46FF004010161022020772068806931
:1018E00010F4407F204602D0FFF7CAFF04E000F06A
:1018F0007BF8204600F079F8257720680169C94314
:10190000090716D4C168C943090712D46FF008014A
:101910000161042020772068C0698007204602D03A
:10192000FFF7AEFF04E000F05FF8204600F05DF83E
:10193000257720680169C943C90617D4C168C9431E
:10194000C90613D46FF010010161082020772068C8
:10195000C06910F4407F204602D0FFF791FF04E0F9
:1019600000F042F8204600F040F825772068016931
:10197000C943C90708D1C168C943C90704D1891E31
:101980000161204600F032F820680169C943090668
:1019900009D4C168C943090605D46FF0800101610B
:1019A0002046FFF707FF20680169C943490609D4AB
:1019B000C168C943490605D46FF040010161204662
:1019C00000F01EF820680169C94389060BD4C1687C
:1019D000C943890607D46FF0200101612046BDE8A4
:1019E0007040FFF7E8BE70BD70477047006803495C
:1019F000884201D1FFF788BB704700000014004007
:101A00007047704770470000F8B5016804460868E1
:101A1000CA684B6910F00F0F4FF0000559D003F062
:101A2000010602F49077374365D0C10705D0D10590
:101A300003D5616C41F001016164410705D5D90707
:101A400003D0616C41F002016164810705D5D907BB
:101A500003D0616C41F004016164010707D502F015
:101A60002001314303D0616C41F008016164616C75
:101A700000293AD0800604D5900602D5204600F011
:101A80002AFB20684069616CC0F38010090700D40C
:101A900060B3204600F0F8FA20684069400621D57E
:101AA0002068143050E8001F21F0400140E8001287
:101AB000002AF5D1E06BA8B16D494163E06BFFF7F7
:101AC0005FF9002811D0E06B416B01B0BDE8F04038
:101AD000084783060FD593060DD52046BDE8F8408C
:101AE00000F0F9BA2046FFF78DFFF8BD2046FFF75A
:101AF00089FF6564F8BD266B2023012E7CD1C606C4
:101B00007AD5D60678D508684868009048694FF0BD
:101B10000206400640D5E16B086840680004000CEE
:101B2000E8D0A28D8242E5D9E085886920282DD0B1
:101B300020680C3050E8001F21F4807140E800124A
:101B4000002AF5D12068143050E8001F21F001016F
:101B500040E80012002AF5D12068143050E8001F38
:101B600021F0400140E80012002AF5D184F842300B
:101B7000256320680C3050E8001F21F0100140E878
:101B80000012002AF5D1E06BFFF7D6F86663A08D4E
:101B9000E18D401A81B22AE0A08DE18D401A81B218
:101BA000E08D0028A6D00029A4D022680C3252E88B
:101BB000000F20F4907042E80007002FF5D1206854
:101BC000143050E8002F22F0010240E80027002FD7
:101BD000F5D184F84230256320680C3050E8002F9E
:101BE00022F0100240E80023002BF5D16663204666
:101BF000FFF707FFF8BDFFE705062BD5150629D52A
:101C000094F841002128F5D1A068B0F5805F01D19A
:101C10002069B0B1206A411C2162216800784860C7
:101C2000E08C401E0004000CE084E3D12068C16811
:101C300021F08001C1602068C16841F04001C160AD
:101C4000D8E7206A0088C0F308004860206A801C3A
:101C50002062E5E74006CDD55006CBD5CA682046C0
:101C600022F04002CA6084F8413000F0E8F8C1E791
:101C70007920000870B5040004D094F841000025D4
:101C800010B106E0012070BD84F84050204600F0FD
:101C900023F8242084F841002068C16821F4005111
:101CA000C160204600F078FA2068016921F4904173
:101CB00001612068416921F02A0141612068C16801
:101CC00041F40051C1606564202084F8410084F82B
:101CD00042006563002070BD30B585B000240094DB
:101CE0000194029403940068184988422CD1184842
:101CF000816941F480418161816901F480410491ED
:101D0000816941F0040181618069124D00F0040095
:101D100004904FF400700090022001900320039083
:101D200069462846FFF7E8F82815CDE9000469461A
:101D300028460294FFF7E0F8002205212520FFF74E
:101D40007BFA2520FFF76AFA05B030BD0038014064
:101D5000001002400008014090F84230202B01D0D2
:101D60000220704721B11AB10023036300F070BA5A
:101D70000120704710B50068074988420AD107481A
:101D8000007801F07DFFBDE81040012203490448BE
:101D9000FFF7E2BF10BD0000003801400000002046
:101DA000B00000202DE9F843044690F841001F469A
:101DB00016460D46202802D00220BDE8F8837DB1EA
:101DC00076B100206064212084F84100FFF796F985
:101DD000A6848046E684A068B0F5805F02D003E068
:101DE0000120EAE7206910B12E4600250EE000260A
:101DF0000CE08021204600F046FAA0B9AEB116F8FA
:101E0000010B21684860E08C401EE084E08C434672
:101E10004FF0000200970028EBD14FF04001204620
:101E200000F031FA30B10320C7E735F8020BC0F3F8
:101E30000800E6E7202084F841000020BDE7704755
:101E4000FEE7000010B5044A0021044802F030F912
:101E50000349486010BD0000E0610008291F000828
:101E60000400002000B585B00020029003901548C2
:101E7000816941F010018161816901F010010491D3
:101E8000816941F020018161816901F020010491A3
:101E9000816941F0040181618069694600F00400B4
:101EA000049002200090084801900848FFF724F8A9
:101EB000002205210720FFF7BFF90720FFF7AEF941
:101EC00005B000BD001002400000211000080140D4
:101ED0000C4810B50A4901604FF4E131416000211E
:101EE00081600C22C160C0E904128161C161FFF709
:101EF000C1FE002803D0BDE81040FEF71BBF10BD97
:101F000000380140B0000020FEE7FEE710B50C20CD
:101F100002F014FD0446042002F010FD6060002071
:101F20002060A060204610BD4FF4FA74204602F0F5
:101F300069F800F083FEFFF7E9FF044908600449EF
:101F400001F048FF204602F05DF8FBE704000020A6
:101F50007D3F000810B5502080F31188BFF34F8FEC
:101F6000BFF36F8F03F04EFF18B104494FF080505C
:101F70000860002080F3118810BD000004ED00E02F
:101F800030B58FB028216846FEF765F914210AA8FC
:101F9000FEF761F901210804CDE900100024029444
:101FA00002250491CDE907504FF4E01009906846EE
:101FB000FFF770FA08B172B6FEE70F20CDE90A0507
:101FC0004FF48060CDE90C4002210AA80E94FFF77F
:101FD00065F9002801D072B6FEE70FB030BD70473A
:101FE0000148FFF74EBC0000F8000020F0B5026881
:101FF0001C4B1D4D1D4E1E4F1E4C4FF0804C9842E9
:1020000009D0A04207D0604505D0A84203D0B04215
:1020100001D0B84204D122F0700E4A6842EA0E02A2
:10202000984209D0A04207D0604505D0A84203D00D
:10203000B04201D0B84203D122F44075CA682A43A5
:102040004D6922F080022A4302608A68C2620A68EF
:102050008262984201D0A04201D109690163012145
:102060004161F0BD002C0140000400400008004028
:10207000000C00400034014010B5406A0021C185C9
:10208000C184FFF7BFFC10BD01680C3151E8002F7F
:1020900022F4907241E80023002BF5D1016814313D
:1020A00051E8002F22F0010241E80023002BF5D176
:1020B000016B012909D101680C3151E8002F22F090
:1020C000100241E80023002BF5D1202180F84210B6
:1020D00000210163704708B590F84210222901D011
:1020E000022008BD82684FF480539A4201D10169F1
:1020F00021B1816A9A421BD04AB10AE00268816A22
:102100005268C2F308020A80816A891C08E00269E9
:1021100072B10268526802F07F020A70816A491C3B
:102120008162C18D491E0904090CC18503D01BE0E1
:1021300002685268F1E70168CA6822F02002CA60AA
:102140000168CA6822F48072CA6001684A6922F094
:1021500001024A61202180F8421000214163026B94
:10216000012A03D0FFF706FE002008BD01630168C5
:102170000C3151E8002F22F0100241E80023002B1F
:10218000F5D101680A68D20602D50A68496800914B
:10219000818DFFF736FCE7E770B5044600680169FA
:1021A000E26821F44051114301612169A0680843AC
:1021B000616908432168CA6841F20C639A4302438B
:1021C000CA6020684169A26921F4407111434161EC
:1021D0001E492068884202D1FFF726F901E0FFF787
:1021E00013F900EBC00101EB00126068642180006C
:1021F000B2FBF0F3B3FBF1F36FF018067343B2FBDD
:10220000F0F5B2FBF0F605EB8305322303EB051581
:10221000B5FBF1F5B6FBF1F605F0F00505EB06159B
:10222000B2FBF0F6B2FBF0F0B0FBF1F06FF0180289
:10223000504306EB800003EB0010B0FBF1F0216887
:1022400000F00F002844886070BD00000038014095
:1022500081628285C28500214164222180F842107A
:10226000016921B10168CA6842F48072CA600168DC
:102270004A6942F001024A610068C16841F02001E8
:10228000C160002070472DE9F041984617460E4680
:102290000446069D27E0681C25D02DB1FEF72EFFD1
:1022A000A0EB0800A8421ED920680C3050E8001F9F
:1022B00021F4D07140E80012002AF5D120681430D2
:1022C00050E8001F21F0010140E80012002AF5D17A
:1022D000202084F8410084F84200002084F8400067
:1022E0000320BDE8F0812068006836EA000004D0D1
:1022F0000020B842CFD00020F3E70120F9E700002A
:102300000148FFF781BB0000B0000020FEE700009D
:102310000FB4054B10B503A9044A029800F006F962
:1023200010BC5DF814FB0000653F0008AC00002005
:102330000FB4084B10B504A902AA039800F0F6F8F0
:10234000044602A9002000F074FC204610BC5DF891
:1023500014FB0000332C00080907090E002804DBD9
:1023600000F1E02080F80014704700F00F0000F149
:10237000E02080F8141D704702E008C8121F08C151
:10238000002AFAD170477047002001E001C1121FF6
:10239000002AFBD1704700002DE9FF5F82B00021C9
:1023A000DDE90430020DDDF840B0034318D044F6F7
:1023B0001050A2F2FF3242431514119801281FD089
:1023C000A5EB0B00401C5FEA000A4FF000064E4FE1
:1023D000DFF83891B046504615D5CAF1000413E035
:1023E000119801244AA3012801D16FEA0B01029838
:1023F000119AC0E90031C0E9024206B0BDE8F09F81
:10240000CBF10000DFE704460021404A491842EBC7
:102410000450CDE9001012E0E00707D032463B46F9
:1024200040464946FEF797F88046894632463B4685
:1024300010461946FEF78FF806460F466410002C2A
:10244000EAD1DDE90401DDE90023BAF1000F06DA83
:10245000FEF781F842464B46FEF77DF805E0FEF7B1
:10246000ECF842464B46FEF7E8F804460E460022DA
:10247000284BFEF769F903D84FF0FF30014607E01B
:102480000022254B20463146FDF7BEFFFEF744F9FA
:10249000102409E0002C0ADB0A220023FDF734FF98
:1024A000039B30321A55641E50EA0102F2D1641CBB
:1024B000039AC4F111031444119A012A03D0012292
:1024C00008430DD10AE0084304D000204FF0110B5F
:1024D000119072E7A3EB0B056D1E0DE05B4504DD6B
:1024E0004FF0000205F1010504E003DA4FF00002AD
:1024F000A5F10105002AECD002981199C0E902313A
:10250000C0E9004579E70000000014400000F03FFA
:10251000300000000000F0430000E03F30380A289F
:1025200001D2012070470020704700002DE9FF4FC5
:1025300095B09A46884606460025EEE1252877D1D3
:1025400000242746F94A0121039400E0044316F8C9
:10255000013F203B01FA03F01042F7D130782A28DE
:1025600011D06FF02F033078A0F13002092A16D86D
:10257000039A44F0020402EB820203EB420210448D
:10258000761C0390EFE758F8042B0392002A03DA35
:10259000504244F40054039044F00204761C307816
:1025A0002E2816D116F8010F44F004042A280DD065
:1025B0006FF02F023078A0F13003092B09D807EB18
:1025C000870302EB4303C718761CF3E758F8047B34
:1025D000761C30786C280FD006DC4C2817D0682881
:1025E0000DD06A2814D104E0742810D07A280FD1B5
:1025F0000DE044F400140AE044F4801401E044F4D3
:1026000040147278824202D104F58014761C761C44
:10261000307866280BD013DC582877D009DC0028E6
:1026200075D04528F6D04628F4D047281AD193E132
:1026300018E0632835D0642879D0652812D18BE161
:10264000702873D008DC6728F1D069286FD06E2815
:102650000DD06F2806D1ACE073282CD0752874D02B
:10266000782853D05246179990476D1C54E1C4F313
:102670000250022809D003280DD0D8F800100428F1
:102680000DD00D6008F1040846E1D8F80010EA17F3
:10269000C1E90052F6E7D8F800100D80F2E70D709E
:1026A000F0E718F8041B8DF8001000208DF80100E9
:1026B000EB46012003E058F804BB4FF0FF30610700
:1026C0004FF0000102D40DE009F101018946B94241
:1026D0000FDA8145F8DB1BF809100029F4D108E076
:1026E00009F1010189468142FADB1BF80910002932
:1026F000F6D103985346A0EB090721463846179AAE
:1027000000F080FA284400EB090507E044E008E106
:102710000DE01BF8010B524617999047B9F10109DA
:10272000F7D2534621463846179AF2E039E00A219B
:10273000C4F302524FF0000B0091022A06D058F861
:10274000040BC117032A09D00AE023E008F10700AF
:1027500020F00702F2E80201904605E000B2C1173E
:10276000042A01D140B2C117002906DA0A46002125
:10277000404261EB02012D2202E0220504D52B220A
:102780008DF80420012203E0E20701D02022F7E7C0
:10279000914657E00A2100E010214FF0000B009114
:1027A0000BE010214FF0000B44F0040408270091C7
:1027B00003E008204FF0000B0090C4F30252022AFD
:1027C00005D058F8040B0021032A08D008E008F1CE
:1027D000070020F00702F2E80201904603E080B211
:1027E000042A00D1C0B24FF0000922072AD532785E
:1027F000702A07D0DDF800C08CF0100C5CEA0B0CDE
:1028000005D00EE040228DF80420012208E050EAB5
:10281000010306D030238DF804308DF80520022204
:102820009146009B83F0080353EA0B030AD150EA58
:10283000010201D1620705D530228DF804204FF046
:1028400001097F1E3278582A04D039A20C920CAAB2
:1028500002920BE03BA2F9E75B46009AFDF754FDBC
:102860000C9B9B5C029A521E0292137050EA01026A
:10287000F2D1029804A9081A00F1200B600702D5D2
:1028800024F4803400E001275F4502DDA7EB0B0054
:1028900000E0002000EB0B01009003984944401A2F
:1028A0000390E00306D453462146179A039800F09C
:1028B000A9F90544002706E001A85246C05D179912
:1028C00090476D1C7F1C4F45F6DBE0030CD553464B
:1028D0002146179A039800F095F9054404E030204A
:1028E0005246179990476D1C0099481E0090002988
:1028F000F5DC08E00298029952460078491C0291E2
:10290000179990476D1CBBF10001ABF1010BF1DC95
:102910005BE100F065F90544761C307800287FF40F
:102920000DAE19B02846BDE8F08F0000092801005F
:102930003031323334353637383961626364656635
:1029400000000000303132333435363738394142F7
:102950004344454600000000600700D4062708F104
:10296000070020F00700F0E80223804603F0004C47
:102970005FEA0C0001D097A009E0200501D596A0E0
:1029800005E0E00701D095A001E0AFF24C00139004
:10299000307823F0004365280CD006DC452809D0A8
:1029A00046281DD047287FD13BE0662818D06728ED
:1029B0007AD136E00021112F01DB112000E0781CD4
:1029C000CDE9000104A90CA8FFF7E6FCDDE90D0143
:1029D0000C9A4FF0000B07F10109109200914EE0A4
:1029E0004FF000400097CDE9011004A90CA8FFF7B3
:1029F000D3FCDDE90D020C9B0F994FF0000B9146C3
:102A00001093009211B9791C00EB0109B7EB090092
:102A100003D4C0F1FF3B07F10109A9EB07000190C6
:102A200042E0012F00DA01270021112F01DD1120E2
:102A300000E03846CDE9000104A90CA8FFF7ACFC82
:102A4000DDE90D010C9A00914FF0000BB946109290
:102A500021070FD4009A4A4503DA914601E0A9F113
:102A60000109B9F1010F05DD109AA9F10101515CCD
:102A70003029F4D0B84202DA10F1040F03DA012150
:102A8000CDE9011010E0002803DC8344A9EB00012C
:102A900002E0411C494500DD8946A0EB0B00401CCB
:102AA00001904FF000400290200705D4019848455E
:102AB00002DB4FF0FF30019000208DF84B000298B0
:102AC0000DF14B07B0F1004F25D002200C902B20C8
:102AD0000D90029800280CDA404202902D200D90B3
:102AE00007E00A210298FDF7F9FB3031029007F860
:102AF000011D0C99481E0C900029F2DC0298002858
:102B0000EFD1791E0D980870307800F0200040F069
:102B1000450007F8020D11A8C01BC01D02901398B4
:102B2000007800B1012000EB0901019801EBE07190
:102B3000029801440398401A401E0390E00306D413
:102B400053462146179A039800F05CF80544139801
:102B5000007818B15246179990476D1CE00323D5B1
:102B600053462146179A039800F04CF805441BE0A1
:102B7000BBF1000F07DB0098584504DD109817994A
:102B800010F80B0001E01799302052469047019849
:102B90000BF1010B401E05F10105019004D12E201F
:102BA0005246179990476D1CB9F10001A9F101092E
:102BB000DEDC05E017F8010B5246179990476D1CB3
:102BC0000299481E02900029F4DC53462146179AC8
:102BD00003989EE62D0000002B000000200000005E
:102BE0002DE9F041044600251E461746880404D40A
:102BF00005E039462020B0476D1C641EF9D52846F3
:102C0000BDE8F0812DE9F041044600251E469046BE
:102C1000C80301D5302700E02027880404D505E04B
:102C200041463846B0476D1C641EF9D52846BDE8BC
:102C3000F0810A68531C0B60107070472DE9F04F4B
:102C400087B002F085FA0025A94E2C46C5EBC500D9
:102C500006EBC007142087F8344001F06FFE6D1CAE
:102C6000B8620F2DF2DB002232210A2002F0DEFDD5
:102C7000DFF87C82A8F1B4084546C8F8040002F0E9
:102C8000A1FC28649B49D1E90001CDE9000102F0D3
:102C90003FFC2C2001F052FE07466846FDF7E6FA9D
:102CA000421C69463846FDF7BDFA3C627C623C85B1
:102CB00003F084F9904E4FF0805520B93560BFF392
:102CC0004F8FBFF36F8F8D48876000F0D7FE8C4821
:102CD000012300901A4619468AA003F0D1F947460D
:102CE000C8F84400002849D003F086F80246009452
:102CF00000230121786C03F00DFADFF8F4A100271E
:102D0000AAF16C0A4FF0180B07EBC7090AEB89040C
:102D1000002084F8200007F13000C2B27EA102A892
:102D2000FFF706FB04F10C008046142202A9FDF710
:102D300079FA0120B840606000220C210A2002F0DC
:102D400075FD4AF8290004F10800CDE900B02346DA
:102D500041464FF48072744802F0E8FF012821D008
:102D600002F0D6FB07EBC7010AEB81016FA00C3123
:102D7000FFF7CEFA03F022F970B112E002F0C8FBBF
:102D800072A0FFF7C5FA03F019F920B93560BFF357
:102D90004F8FBFF36F8FFEE73560BFF34F8FBFF3E9
:102DA0006F8FFEE77F1C032FAEDB51480023AC384A
:102DB000CDE900B080226EA1724802F0B7FF012871
:102DC0000DD002F0A5FB70A0FFF7A2FA03F0F6F811
:102DD00020B93560BFF34F8FBFF36F8FFEE702F06E
:102DE000D7F902F095FB75A0FFF792FA03F0E6F829
:102DF00020B93560BFF34F8FBFF36F8F02F088FBB0
:102E00006EA0FFF785FA03F0D9F820B93560BFF35B
:102E10004F8FBFF36F8F02F07BFB69A0FFF778FA4B
:102E200003F0CCF820B93560BFF34F8FBFF36F8F3D
:102E300002F06EFB66A0FFF76BFA03F0BFF820B953
:102E40003560BFF34F8FBFF36F8F02F061FB6AA055
:102E5000FFF75EFA03F0B2F820B93560BFF34F8F89
:102E6000BFF36F8F02F054FB6748FFF751FA03F08E
:102E7000A5F820B93560BFF34F8FBFF36F8F02F015
:102E800047FB6248FFF744FA03F098F820B9356031
:102E9000BFF34F8FBFF36F8F02F03AFB5A48FFF733
:102EA00037FA03F08BF820B93560BFF34F8FBFF3CB
:102EB0006F8F02F02DFB5648FFF72AFA03F07EF8D9
:102EC00020B93560BFF34F8FBFF36F8F02F020FB47
:102ED00050A0FFF71DFA03F071F820B93560BFF379
:102EE0004F8FBFF36F8F01F025FE07B0BDE8F08F65
:102EF000E85C0020BC3A000804ED00E094000020EB
:102F0000BD3900086170705F6B65726E656C5F73D0
:102F1000797374696D6572007369676E616C5F7453
:102F200068726561642563003D3400086170705FFC
:102F30006B65726E656C3A20B4B4BDA82573C8CEBB
:102F4000CEF1CAA7B0DC210D0A0000006170705FED
:102F50006B65726E656C3A20B4B4BDA8C8EDBCFE5A
:102F6000B6A8CAB1C6F7CAA7B0DC210D0A00000096
:102F7000757365725F636D645F746F5F6B65726EAE
:102F8000656C0000B13400086170705F6B65726E33
:102F9000656C3A20B4B4BDA8757365725F636D64E7
:102FA0005F71756575655F48616E646C65C8CECE8E
:102FB000F1CAA7B0DC210D0A00000000200D0A00B4
:102FC0002020202020205C7C2F2020200D0A0000C3
:102FD0002020202020202D414B2D20202020D3A652
:102FE000D3C3C4DABACBA3BABFAACABCD4CBD0D09D
:102FF0002E2E2E0D0A0000002020202020202F7CC5
:103000005C2020200D0A0000806300087068000822
:103010007C620008CAE4C8EB68656C70C3FCC1EE52
:10302000BFC9D2D4B2E9BFB4B0EFD6FAD0C5CFA2EF
:103030000D0A000038B5049C009400F047FD0146DD
:103040000248C068BDE8384000F07ABD9400002016
:103050002DE9F0471F4690468A46814602F058FA0D
:103060001948846800E0646A606A28B121464846CD
:10307000FDF703F90028F6D102F0A0FF134E4FF040
:10308000805520B93560BFF34F8FBFF36F8F214656
:103090004846FDF7F2F878B102F03AFA0CA0FFF7D3
:1030A00037F902F08BFF002804D13560BFF34F8F52
:1030B000BFF36F8FBDE8F0873B4642465146206A1A
:1030C000BDE8F04703F05AB89400002004ED00E09A
:1030D0006170705F6B65726E656CA3BACFB5CDB36E
:1030E000D6D0CEB4D7A2B2E1B4CBBAAFCAFDA3ACAE
:1030F000C7EBBCECB2E9BAAFCAFDC3FBD7D6CAC7AF
:10310000B7F1D5FDC8B7A3A10000000030B58BB062
:1031100002F0FEF92AA0FFF7FBF802F04FFF324D54
:103120004FF0805420B92C60BFF34F8FBFF36F8FE7
:1031300002F0EEF92DA0FFF7EBF802F03FFF20B907
:103140002C60BFF34F8FBFF36F8F34A101AB07C962
:1031500083E8070034A004AB07C883E8070035A262
:1031600007AB07CA83E8070001A8FDF77FF8431CF7
:1031700040F2DC50009001AA314932A0FFF75AFF1B
:1031800004A8FDF773F8431C4FF47A70009004AA6A
:103190002B492FA0FFF74EFF07A8FDF767F8431C48
:1031A0004FF4FA70009007AA25492CA0FFF742FFC0
:1031B00000F0B2FB2C492DA000F038FB0BB030BD65
:1031C0000D0A6170705F6B65726E616CA3BA727587
:1031D0006E206170705F6B65726E656C5F64656DAB
:1031E0006F312E2E2E0D0A0004ED00E06170705F2D
:1031F0006B65726E616CA3BAD5FDD4DAD4CBD0D036
:1032000063616C6CBACD74696D65B7FECEF1CABEF0
:10321000C0FDB3CCD0F22E2E2E0D0A0074696D6560
:10322000312074657374000074696D6532207465B3
:103230007374000074696D653320746573740000E5
:10324000F94A000874696D655F7465737431000034
:1032500074696D655F7465737432000074696D65BF
:103260005F746573743300003D3D000863616C6CEE
:103270005F7465737400000070B50C4C607820B901
:10328000FEF744FE2061012060700949206900B109
:10329000016000250D2207A1206900F09FFD142088
:1032A00002F02AF86D1C642DF4DB70BD9400002040
:1032B0005541000848656C6C6F20776F726C642113
:1032C00000000000F8B5322002F016F8494E3068D0
:1032D0004FF0805400F57A70474D009006E0022FC1
:1032E0001FD0032F3BD0042F79D154E002F010F906
:1032F00042A0FFF70DF802F061FE20B92C60BFF389
:103300004F8FBFF36F8FC82001F0F6FF684600F0C3
:1033100081FA002869D03068022700F57A700090A1
:1033200019E002F0F5F838A0FEF7F2FF02F046FED1
:1033300020B92C60BFF34F8FBFF36F8FC82001F00F
:10334000DBFF684600F066FA002848D030680327A3
:1033500000F57A700090012001F0CEFFBFE702F087
:10336000D7F82CA0FEF7D4FF02F028FE20B92C607D
:10337000BFF34F8FBFF36F8FC82001F0BDFF6846CA
:1033800000F048FA50B33068042700F57A700090D6
:10339000012001F0B1FF02F0BBF821A0FEF7B8FF59
:1033A00002F00CFE20B92C60BFF34F8FBFF36F8F7C
:1033B000C82001F0A1FF684600F02CFA70B102F0BD
:1033C000A7F81AA0FEF7A4FF02F0F8FD002804D128
:1033D0002C60BFF34F8FBFF36F8FF8BDFFE7012065
:1033E00001F08AFF012FB9D180E7012001F084FFAD
:1033F0007CE70000345C002004ED00E0737461742D
:1034000065310D0A000000007374617465320D0AA5
:10341000000000007374617465330D0A0000000041
:103420007374617465340D0A00000000D3C3C0FDDD
:1034300033B2E2CAD4BDE1CAF80D0A001FB51A4D75
:103440000446002600966168286C0123002202F0E1
:1034500015F96168014223D0DFF850804FF08057A2
:10346000002201A9206802F08BFBA8B1DDE902016E
:10347000019A904702F04CF894F82000401E84F81E
:10348000200002F09BFD0028EAD1C8F80070BFF3CD
:103490004F8FBFF36F8FE3E76168286C02F072F81B
:1034A000012001F029FFCDE7345C002004ED00E0AD
:1034B000AEB091A000682C90FEF728FD8346FEF781
:1034C00025FD8246FEF722FD06468C495FEA0B0089
:1034D00001D0CBF800108A495FEA0A0001D0CAF88F
:1034E0000010884806B13060874FDFF820820DF168
:1034F00008094FF0805500221CA9786802F040FBB3
:1035000001287CD102F004F88148FEF701FF02F0A7
:1035100055FD28B9C8F80050BFF34F8FBFF36F8F28
:1035200001F0F6FF1CA97BA0FEF7F2FE02F046FDBB
:1035300028B9C8F80050BFF34F8FBFF36F8F2CA985
:103540001CA8FCF7A9FE029001242CA90020FCF77E
:10355000A3FE0BE0641CE4B209EB840141F8040C07
:103560002CA90020FCF798FE0D2C03D80028F1D1DF
:103570000D2C03D901F0CCFF70A046E001F0C8FF8C
:1035800079A0FEF7C5FE02F019FD28B9C8F8005071
:10359000BFF34F8FBFF36F8F74A10298FCF76DFEDE
:1035A00000282DD073A10298FCF767FE002846D0B2
:1035B00072A10298FCF761FE00287CD071A10298EC
:1035C000FCF75BFE002878D070A10298FCF755FE4E
:1035D000002876D072A10298FCF74FFE002875D023
:1035E00074A10298FCF749FE002873D001F090FF07
:1035F00075A0FEF78DFE02F0E1FC002871D076E0A8
:10360000022C10D901F084FF7848FEF781FE02F009
:10361000D5FC00287FF46FAFC8F80050BFF34F8F80
:10362000BFF36F8F67E7012C02D0022C03D05EE05E
:1036300001F080FA5FE7039801F034FB5BE7012CAF
:1036400005D0022C13D0022049460FAA25E001F034
:103650005FFF67A0FEF75CFE02F0B0FC28B9C8F877
:103660000050BFF34F8FBFF36F8F42A026E066A1DB
:103670000398FCF702FE20B14FF4FA73002203987E
:1036800011E06348806801F0D7F930E051F820304C
:1036900002EB800C401C4CF8083CA042F6DB03987F
:1036A0004FF4FA73A21E0FA9FFF7D2FC1FE002E04D
:1036B00003E006E00AE031A000E032A001F0F2FAF7
:1036C00015E000221146584607E003E000221146AB
:1036D000504602E000221146304600F07FFB06E033
:1036E000FFE7C8F80050BFF34F8FBFF36F8F012083
:1036F00001F002FEFFE60000200000000D3100088E
:1037000079320008C5320008345C002004ED00E086
:10371000146400086170705F6B65726E656C3A20AE
:10372000D3C3BBA7B7A2CBCDB5C4D4ADCABCC3FC71
:10373000C1EEA3BA25730D0A000000006170705F2E
:103740006B65726E656C3A20C3FCC1EEB2CECAFDE9
:10375000B9FDB3A4A3ACB3ACB3F6CFB5CDB3CFDE54
:10376000D6C6210D0A0000000D0A000068656C70C5
:103770000000000063616C6C0000000074696D65FE
:10378000000000007369676E616C00006170705F1B
:103790006B65726E656C5F64656D6F310000000073
:1037A0006170705F6B65726E656C5F64656D6F32C2
:1037B000000000006170705F6B65726E656C5F6425
:1037C000656D6F33000000006170705F6B65726E35
:1037D000656C3A20C3FCC1EEB3F6B4EDA3ACC7EB05
:1037E000BCECB2E9A3A10D0A000000000C6B0008BC
:1037F0006170705F6B65726E656C3A20B2CECAFD07
:10380000B9FDC9D9210D0A006C697374000000006C
:1038100094000020044909680068814201D3012016
:103820007047002070470000345C00202DE9F0470D
:103830008846054601F06CFEDFF89890D9F80840FC
:1038400000E0646A606A28B129462046FCF715FD4D
:103850000028F6D102F0B2FB1F4F4FF0805620B97E
:103860003E60BFF34F8FBFF36F8F29462046FCF7B2
:1038700004FDA8B1282001F061F80446C0F82080BA
:103880002846FCF7F3FC421C29462046FCF7CAFCFC
:1038900000206062D9F8085001F03AFE284607E09F
:1038A00001F036FE29460DA0FEF732FD07E008467E
:1038B000416A0029FBD14462288D401C288502F012
:1038C0007DFB002804D13E60BFF34F8FBFF36F8FA5
:1038D000BDE8F0879400002004ED00E06170705FA7
:1038E0006B65726E656CA3BACFB5CDB3D6D0D2D1AD
:1038F000BEADD7A2B2E1C1CB63616C6CB7FECEF1B5
:10390000A3BA2573A3ACCEDED0E8D6D8B8B4D6D04F
:10391000D7A2B2E10D0A000070B501F0F9FD204810
:10392000FEF7F6FC02F04AFB1E4E4FF0805520B920
:103930003560BFF34F8FBFF36F8F01F0E9FD1A4879
:10394000C068046BCCB900BF02F038FB002804D17A
:103950003560BFF34F8FBFF36F8F70BD01F0D8FD9F
:10396000214612A0FEF7D4FC02F028FB20B93560F6
:10397000BFF34F8FBFF36F8F246B206B0028EDD107
:1039800002F01CFB20B93560BFF34F8FBFF36F8F80
:1039900001F0BEFD214607A0FEF7BAFCD4E7000007
:1039A000BC66000804ED00E09400002025732D3E65
:1039B0000000000025730D0A0000000002480168A5
:1039C000491C016000F0FAB8345C00202DE9F04198
:1039D0000F46044601F09CFD4FF080551B4E00E061
:1039E000246B206BC0B13946FCF747FC0028F7D1A7
:1039F000216B89B1086B206315484A6A43689A4273
:103A000003D1C268126B526A42600278521E027081
:103A1000002081F834000DE001F07AFD39460DA058
:103A2000FEF776FC02F0CAFA20B93560BFF34F8F7B
:103A3000BFF36F8F02F0C2FA002804D13560BFF3E4
:103A40004F8FBFF36F8FBDE8F081000004ED00E001
:103A5000940000206170705F6B65726E656C3A2037
:103A6000D5D2B2BBB5BDB4FDC9BEB3FDB5C4C1B4FA
:103A7000B1EDCFEE25730D0A0000000010B501F086
:103A800047FD0D4C0DA00068206000202071411EF4
:103A9000C4E908012063E062A06202F08FFA38B93D
:103AA00008494FF080500860BFF34F8FBFF36F8F0E
:103AB0000548C46010BD0000E85C002068656164D2
:103AC0000000000004ED00E0940000202DE9F0412A
:103AD0000D461C4680461949DDF818601346012042
:103AE000C0EBC00201EBC20292F834201AB1401CB4
:103AF000C0B20F28F4D30F281DD0C0EBC00001EBDB
:103B0000C0072BB122461946B86AFCF78BFBFC6252
:103B10004046FCF7ABFB421C41463846FCF782FBB3
:103B200006483D62B438006830447862002038634B
:103B30003846BDE8F0810020FBE70000E85C00208B
:103B40002DE9F0411B4D064628780F282FD20C4650
:103B500001F0DEFC0121DFF86080306B0F0708B157
:103B6000626A0BE03463606A68602878401C2870E1
:103B700084F8341011E0006B366B10B1436A934245
:103B8000F9D3346320632878401C287084F83410FB
:103B9000606A6968884200D2686002F00FFA002803
:103BA00005D1C8F80070BFF34F8FBFF36F8FBDE82A
:103BB000F08100009400002004ED00E02DE9F041C8
:103BC0002A4D28782A4F4FF080560F2819D301F03C
:103BD0009FFC2848FEF79CFB02F0F0F920B93E60FC
:103BE000BFF34F8FBFF36F8F01F092FC2248FEF7B7
:103BF0008FFB02F0E3F920B93E60BFF34F8FBFF3B4
:103C00006F8F01F085FCE868046B1DE0D4F830800C
:103C10005FEA080002D0D8F8240001E04FF0FF303E
:103C2000686002F0CBF920B93E60BFF34F8FBFF35D
:103C30006F8FD4E90A01226A904701F069FC21469E
:103C4000E868FFF7C3FE444624B10C480068696881
:103C50008842DBD202F0B2F9002804D13E60BFF303
:103C60004F8FBFF36F8FBDE8F081000094000020FC
:103C700004ED00E0BC68000804690008345C002022
:103C8000F8B5224C94F83E2004F10C01505494F8FD
:103C90003E20521C84F83E200D2801D00A2833D142
:103CA00094F83E00002501282CD094F83E0002280C
:103CB00005D1207B0D2825D0207B0A2822D094F81E
:103CC0003E2012480B30155400236A46606801F00C
:103CD000F9FE0F4F00994FF0805621B13E60BFF3BF
:103CE0004F8FBFF36F8F01280CD001F011FC09A09A
:103CF000FEF70EFB02F062F920B93E60BFF34F8F72
:103D0000BFF36F8F84F83E50F8BD0000345C002094
:103D100004ED00E06170705F6B65726E656C3A2057
:103D2000CFFBCFA273656E645F6461746131B7A22B
:103D3000CBCDCAA7B0DC210D0A0000002DE9F0416F
:103D40000F46804601F0E4FB1BA0FEF7E1FA02F00B
:103D500035F91D4E4FF0805520B93560BFF34F8FB8
:103D6000BFF36F8F002414E001F0D2FB58F8240059
:103D7000002100F0B3FE02460B4614A0FEF7C8FA7D
:103D800002F01CF920B93560BFF34F8FBFF36F8F7E
:103D9000641CBC42E8D301F0BBFB0AA0FEF7B8FAF2
:103DA00002F00CF9002804D13560BFF34F8FBFF348
:103DB0006F8FBDE8F081000048656C6C6F20776FF5
:103DC000726C64210D0A000004ED00E025372E32EC
:103DD0006C662000002800D0016070472DE9F0419A
:103DE00090460F4605004FD0286800284CD00B267F
:103DF00001F08EFB254C27B1424639466868FCF736
:103E000011FA224B0020C5F8088000BF00EBC0016A
:103E100003EB810292F82010B14201D214460E4603
:103E2000401C0328F2DB94F82000411C0A2901D928
:103E30000A2000E0401C84F8200002F0BFF8144F74
:103E40004FF0805620B93E60BFF34F8FBFF36F8FA6
:103E500000231A462946206801F084FD60B901F06C
:103E600057FB0CA0FEF754FA02F0A8F820B93E6008
:103E7000BFF34F8FBFF36F8F044861684838006C01
:103E8000BDE8F04101F0ACBBBDE8F0817C5C0020F6
:103E900004ED00E06170705F6B65726E656C3ABE38
:103EA000AFB8E6A3BAD0C5BAC5B7A2CBCDC6B5C226
:103EB000CAB9FDB8DFA3ACBFC9C4DCB6AACAA7B2F1
:103EC000BFB7D6D0C5BAC5A3A10D0A00F8B517462D
:103ED000050041D0286800283ED0204C0B2611B1A7
:103EE0006868FCF79FF91D490020AF6000EBC00235
:103EF00001EB820393F82020B24201D21C46164601
:103F0000401C0328F2DB94F82000411C0A2901D947
:103F10000A2000E0401C84F8200000231A462946AD
:103F2000206801F0CFFD0E4E00984FF0805520B173
:103F30003560BFF34F8FBFF36F8F08486168483813
:103F4000006C6A4601F092FB0098002804D03560AE
:103F5000BFF34F8FBFF36F8FF8BD00007C5C002074
:103F600004ED00E013B54FF0FF330122694602482B
:103F7000FDF718FF00981CBDB000002010B506A08A
:103F8000FEF7C6F94FF4FA7001F0B6F9BDE810403B
:103F900009A0FEF7BDB90000496E746572727570B4
:103FA0007420736C6F74207374617274696E672E01
:103FB0002E2E0D0A00000000496E74657272757035
:103FC0007420736C6F7420656E64696E672E2E2E7C
:103FD0000D0A0000FDF7A0F8FDF7D2FFFDF742FF44
:103FE000FDF776FF012205490548FDF7B5FE00F013
:103FF00023F8FDF727FF00F03BF8FEE70000002064
:10400000B000002010B5EFF3058149B9EFF310813E
:1040100031B908490968022905D1EFF3118111B1BD
:104020006FF0050403E0002408B101F065F92046B3
:1040300010BD00006C000020EFF3058058B9EFF3CD
:10404000108040B909490868022801D030B109E060
:10405000EFF3118030B16FF0050070470120086068
:10406000002070474FF0FF30704700006C000020C8
:1040700010B5EFF3058060B9EFF3108048B90B4934
:104080000868022802D0012806D00BE0EFF3118067
:1040900040B16FF0050010BD0220086001F0F4F996
:1040A000002010BD4FF0FF3010BD00006C0000205C
:1040B000F0B585B04FEA01034FF00004EFF305813E
:1040C0000394A1BBEFF3108189BB21490968022940
:1040D00002D1EFF3118151BB48B3802618218DF82E
:1040E000104004AD42B3176807B13D4697691FB150
:1040F00039467F1E382F02D21779FF0702D00020E1
:1041000005B0F0BD576907B1BE08D2F808C0BCF1D0
:10411000000F0DD0D4685C2C18D312693AB137B1B6
:104120008DE806103246294601F02DFE03900DE081
:10413000D7685FB912694AB903AACDE90012B2B2D1
:10414000294601F0F3FD012800D003940398D7E736
:104150006C00002070B50C46054601F0D9F92246E6
:10416000294609A0FEF7D4F801F028FF38B90C4918
:104170004FF080500860BFF34F8FBFF36F8FBDE8E3
:104180007040152001F0B8B8706172616D203A205E
:1041900025732C2061726763203A2025640D0A0084
:1041A00004ED00E02DE9F041134C0F460546666929
:1041B0002068001D00F062FF681C07D137B121683C
:1041C000BDE8F0410D48091D00F0B6BF2068354438
:1041D000B5424560216805D2A068BDE8F041091DDF
:1041E00000F092BF6068091D00F08EFF206B8542D1
:1041F00000D22563BDE8F0811C00002030060020BD
:104200002DE9F041054600F0A3FF2D4C2069401C2C
:10421000206120682B4F10B1E06930B32BE025609E
:104220002069012827D1002606EB860007EB8000D5
:1042300000F05CFF761C382EF6D3234800F056FFC2
:104240002148143000F052FF1F48283000F04EFF84
:104250001D483C3000F04AFF1B48503000F046FF3C
:10426000194860601430A06005E02068E96AC06AFF
:10427000884200D82560E06A401CE0626864E86A11
:10428000A169884200D9A06100EB800007EB8000A3
:10429000291D00F051FF00F07BFFE06900280CD0E1
:1042A0002068E96AC06A884207D208494FF0805006
:1042B0000860BFF34F8FBFF36F8FBDE8F081000040
:1042C0001C00002080010020E005002004ED00E03B
:1042D00038B500F03DFF104CA068C8B90F4800F099
:1042E00005FF0E48143000F001FF0C482060143028
:1042F00060600A4B00202833009003F15002102127
:104300000A2001F0B7FAA06010B105A100F0BEFFCD
:10431000BDE8384000F03CBF5800002044060020B3
:10432000546D72510000000030B4026C0B46002A3C
:104330000BD0C1681144C1604468A14201D3016837
:10434000C16030BC1846FBF76DBF30BC70472DE92B
:10435000F041856B174604460026026C82B1C7B156
:10436000E068FBF75FFFE168206C091AE1602268F2
:10437000914202D26168081AE060022F16D017E05D
:104380002068A8B9606801F0A1FD064600206060C1
:104390000EE0A068FBF746FF216CA0680844A0600F
:1043A0006168884204D32068A06001E005B16D1EF9
:1043B0006D1CA5633046BDE8F08110B5044690F849
:1043C000590058B101280CD002280FD0502080F39A
:1043D0001188BFF34F8FBFF36F8FFEE7206B00F0A4
:1043E000EBFE2046BDE8104000F0E6BE10BD000028
:1043F0000F4844F62061420705D0C01D0C4A20F04A
:104400000700821A891A0B4A00230144C2E90003FB
:104410000839103A21F0070111604B600B600B1A4C
:10442000C0E9001393604FF000405360D0607047C4
:10443000140E002080000020144E154CA6F29C475C
:104440004FF08058DFF84C9012E000BF00F080FE83
:10445000F068C568281D00F011FE2069401E20612B
:10446000E068401EE06000F093FE2846FFF7A5FFDD
:10447000E0680028EAD138680128F9D9C9F8008035
:10448000BFF34F8FBFF36F8FF2E700001C060020D1
:104490001C00002004ED00E070B51D46049C51B1E5
:1044A000C4F80020C4E90F010121204601F016FAEA
:1044B00084F84C5070BD2460F4E72DE9F0470E46B7
:1044C000DDE909841746824691009946089DA52298
:1044D000206BFBF7B9FE6FF00301206B01EB870146
:1044E000084420F00707780707D0502080F3118890
:1044F000BFF34F8FBFF36F8FFEE72218315C82F856
:104500003410315C11B1401C1028F6D3002684F819
:104510004360382D00D33725E562C4E91356201DCA
:1045200000F0EFFD04F1180000F0EBFD2461C5F18F
:1045300038006462A061666584F858604A46514656
:10454000384600F067FA2060B8F1000F01D0C8F8D3
:104550000040BDE8F0872DE9F0471E46DDE90894EC
:1045600017460D0080460ED0002C14D0FFF7B0FE89
:10457000C4F80080C4E90657C4E90869201DBDE8F5
:10458000F04700F0BEBD502080F31188BFF34F8F7D
:10459000BFF36F8FFEE7BDE8F087000030B511492B
:1045A00000E011460A688242FBD34B685C188442E3
:1045B00003D1406818444860084643681C18944278
:1045C00009D1084C103C2468A24209D052681A4410
:1045D00042600A6812680260814200D0086030BD03
:1045E0000460F9E78000002070B5002441600B4DA5
:1045F0000061914206D8D11A8269914206D2011D0A
:10460000686807E09A4203D2994201D3012403E08B
:10461000011D286800F078FD204670BD580000207C
:1046200010B5044600F094FDA06B28B15FF00004C3
:1046300000F0AEFD204610BD0124F9E730B589B089
:10464000304D55E00498002806DADDE90601059AA8
:104650009047049800284BDB069C606910B1201D30
:1046600000F00CFD02A800F0B9F8024604980A28F0
:104670003ED2DFE800F00505053D263705053D265D
:104680000598A169034601442046FFF7ADFF00B33A
:10469000616A20468847E069012829D100200090FE
:1046A0000598A169002342181946204601F032FD01
:1046B00078B9502080F31188BFF34F8FBFF36F8F0D
:1046C000FEE70598A06128B1811813462046FFF740
:1046D0008BFF0DE0502080F31188BFF34F8FBFF3A5
:1046E0006F8FFEE794F82C0010B9204600F064FDAF
:1046F000002204A9A86801F043FA0028A2D109B059
:1047000030BD0000580000202DE9FC410F46054651
:1047100000F0FEFE01A800F061F80446019818B10F
:1047200001F04CFCBDE8FC81224EAFB1706800681E
:10473000A8B30027291B3A46B06800F0BBFD01F082
:104740003DFC0028EED11C494FF080500860BFF3BB
:104750004F8FBFF36F8FE5E7A542EBD801F02EFC3A
:1047600030682746C068C468201D00F087FCE069F7
:10477000012810D1A0692B4641193A462046FFF77F
:1047800033FF40B100200346014600902A462046F0
:1047900001F0C0FC20B1616A20468847C2E707E00B
:1047A000502080F31188BFF34F8FBFF36F8FFEE768
:1047B0000127BFE75800002004ED00E006484168EB
:1047C000096829B14168C968C968496801637047C7
:1047D0004FF0FF31FAE700001C00002070B50546DD
:1047E00001F00AFB064E04463069844203D200F011
:1047F00009F8012000E0002028602046346170BDE7
:1048000058000020F8B5194D1FE0C068C46806685C
:10481000201D00F033FC616A20468847E0690128CA
:1048200013D1A0693044B04206D924616060211DD3
:10483000286800F069FC08E000200346014600906B
:104840003246204601F066FC38B12868016800292C
:10485000DBD16968C5E90010F8BD502080F31188EC
:10486000BFF34F8FBFF36F8FFEE7000058000020AB
:1048700008484068401C4FF0500080F3118804D075
:10488000BFF34F8FBFF36F8FFEE7BFF34F8FBFF3C1
:104890006F8FFEE7880000200346002012B1994385
:1048A00002D070470B42FCD001207047074C2068B3
:1048B000016841B1C0680021D0F80000FFF724FF73
:1048C000FFF7BCFEF3E701210020F7E758000020C6
:1048D0002DE9F041044600F03BFC94F9455004F109
:1048E000240609E0606A48B1304601F02FFB08B1A8
:1048F00000F030FD6D1E6DB2002DF3DC4FF0FF3681
:1049000084F8456000F044FC00F022FC94F9445027
:1049100004F1100709E0206948B1384601F016FBA0
:1049200008B100F017FD6D1E6DB2002DF3DC84F8A8
:104930004460BDE8F04100F02BBC00002DE9F041DF
:104940000546002700F0E4FD314E306808B9FFF756
:104950004FFDF06805424BD1C5B3083568070ED04E
:1049600005F00700C0F108000544680707D0502093
:1049700080F31188BFF34F8FBFF36F8FFEE72DB326
:104980007068854234D82248103001460C6801E036
:1049900020460C466168A94202D221680029F7D15D
:1049A00031688C4224D0076821680160606808374C
:1049B000411B10290FD96019420708D0502080F3FD
:1049C0001188BFF34F8FBFF36F8FFEE710E0416098
:1049D0006560FFF7E3FD61687068401A7060B26857
:1049E000904200D2B060F06801430020C4E90001A9
:1049F00001F0E4FA780707D0502080F31188BFF364
:104A00004F8FBFF36F8FFEE73846BDE8F08100009F
:104A10007000002010B5031F4FF080741C601B1F36
:104A200021F001011960191F024B0B601439403845
:104A30000A6010BD7148000870B5044600F068FDBA
:104A400016A0FDF765FC01F0B9FA214E4FF0805534
:104A500020B93560BFF34F8FBFF36F8F00F058FD63
:104A6000646A84B100F054FD21461AA0FDF750FCA1
:104A700001F0A4FA20B93560BFF34F8FBFF36F8FF9
:104A8000646A002CEED101F099FA002804D1356057
:104A9000BFF34F8FBFF36F8F70BD00006170705F09
:104AA0006B65726E656C3A20B5B1C7B0CFB5CDB34A
:104AB000D6D0D7A2B2E1B5C463616C6CB7FECEF1BB
:104AC000D3D0D2D4CFC2BCB8B8F6A3BA0D0A000076
:104AD00004ED00E02573200D0A00000000B583B04E
:104AE0000A460021CDE9001101466846FBF759FC52
:104AF000DDE9000103B000BD10B5044600F008FD7B
:104B0000214609A0FDF704FC01F058FA38B908491C
:104B10004FF080500860BFF34F8FBFF36F8FBDE839
:104B20001040C82000F0E8BB25730D0A000000000B
:104B300004ED00E070B500F0EBFC3CA0FDF7E8FBF5
:104B400001F03CFA404D4FF0805420B92C60BFF387
:104B50004F8FBFF36F8F00F0DBFC3C48FDF7D8FBB5
:104B600001F02CFA20B92C60BFF34F8FBFF36F8F89
:104B700000F0CEFC3648FDF7CBFB01F01FFA20B960
:104B80002C60BFF34F8FBFF36F8F00F0C1FC314833
:104B9000FDF7BEFB01F012FA20B92C60BFF34F8F76
:104BA000BFF36F8F00F0B4FC2B48FDF7B1FB01F0B1
:104BB00005FA20B92C60BFF34F8FBFF36F8F00F061
:104BC000A7FC2248FDF7A4FB01F0F8F920B92C60FE
:104BD000BFF34F8FBFF36F8F00F09AFC1F48FDF7B4
:104BE00097FB01F0EBF920B92C60BFF34F8FBFF3B7
:104BF0006F8F00F08DFC1A48FDF78AFB01F0DEF99B
:104C000020B92C60BFF34F8FBFF36F8F00F080FC93
:104C100014A0FDF77DFB01F0D1F9002804D12C6030
:104C2000BFF34F8FBFF36F8F70BD0000C4DABACBF4
:104C3000D6A7B3D6D2D4CFC2C8FDB4F3B7FECEF157
:104C4000A3BA0D0A0D0A000004ED00E02463000879
:104C5000CC6400088465000828650008C06200086C
:104C600054690008D6B1BDD3CAE4C8EBA1B06865E9
:104C70006C70A1B1BFC9D2D4B2E9BFB4CFB5CDB3C6
:104C8000B5B1C7B0D6A7B3D6B5C4CBF9D3D0C3FCA2
:104C9000C1EEBCB0C6E4B4F3D6C2C3E8CAF60D0A8E
:104CA0000D0A000070B5064600F032FC87A0FDF743
:104CB0002FFB01F083F9864D4FF0805420B92C6012
:104CC000BFF34F8FBFF36F8F82A13046FBF7D5FA4A
:104CD00078B182A13046FBF7D0FA002870D081A1CC
:104CE0003046FBF7CAFA00287DD000F011FC7FA007
:104CF0009FE000F00DFC86A0FDF70AFB01F05EF9D5
:104D000020B92C60BFF34F8FBFF36F8F00F000FC12
:104D10008448FDF7FDFA01F051F920B92C60BFF38A
:104D20004F8FBFF36F8F00F0F3FB7F48FDF7F0FA72
:104D300001F044F920B92C60BFF34F8FBFF36F8FA0
:104D400000F0E6FB7948FDF7E3FA01F037F920B906
:104D50002C60BFF34F8FBFF36F8F00F0D9FB744807
:104D6000FDF7D6FA01F02AF920B92C60BFF34F8F76
:104D7000BFF36F8F00F0CCFB6E48FDF7C9FA01F06E
:104D80001DF920B92C60BFF34F8FBFF36F8F00F078
:104D9000BFFB69A0FDF7BCFA01F010F920B92C6047
:104DA000BFF34F8FBFF36F8F00F0B2FB00E007E05F
:104DB0006FA03EE02C60BFF34F8FBFF36F8F70BDCD
:104DC00000F0A6FB79A0FDF7A3FA01F0F7F820B9EF
:104DD0002C60BFF34F8FBFF36F8F00F099FB5148EA
:104DE000FDF796FA00E02BE001F0E8F820B92C601E
:104DF000BFF34F8FBFF36F8F00F08AFB7048FDF752
:104E000087FA01F0DBF820B92C60BFF34F8FBFF3B6
:104E10006F8F00F07DFB6B48FDF77AFA01F0CEF85A
:104E200020B92C60BFF34F8FBFF36F8F00F070FB82
:104E300065A0FDF76DFA01F0C1F80028BAD070BD89
:104E400000F066FB6A48FDF763FA01F0B7F820B995
:104E50002C60BFF34F8FBFF36F8F00F059FB65A03D
:104E6000FDF756FA01F0AAF820B92C60BFF34F8F76
:104E7000BFF36F8F00F04CFB6DA0FDF749FA01F016
:104E80009DF820B92C60BFF34F8FBFF36F8F00F0F8
:104E90003FFB7748FDF73CFA01F090F820B92C6011
:104EA000BFF34F8FBFF36F8F00F032FB7148FDF7F8
:104EB0002FFA01F083F820B92C60BFF34F8FBFF3B6
:104EC0006F8F00F025FB6C48B3E700000D0A00006F
:104ED00004ED00E063616C6C0000000074696D65B6
:104EE000000000007369676E616C00006170705FA4
:104EF0006B65726E656C3A20CFB5CDB3CEB4D6A7D4
:104F0000B3D6B4CBC3FCC1EEA3A10D0A0D0A0000B9
:104F1000C3FCC1EE63616C6CD3C3B7A8A3BA0D0A1E
:104F20000000000014680008B46A0008646A000801
:104F3000106700087064000874696F6EBAAFCAFD2C
:104F4000C1CBBDE2C8E7BACED4DABBD8B5F7BAAFA9
:104F5000CAFDC4DAB2BFB7C3CECAD6D5B6CBB4ABDE
:104F6000B9FDC0B4B5C4B5C4B2CECAFD0D0A0000C7
:104F7000CAE4C8EB63616C6C206C69737420BFC9B0
:104F8000D2D4B2E9BFB4CFB5CDB3B5B1C7B0D7A213
:104F9000B2E1B5C4CBF9D3D0BBD8B5F7B7FECEF1EB
:104FA000B5C4C3FBD7D60D0A0000000074696D6557
:104FB000B7FECEF1D3C3B7A8A3BA0D0A0000000014
:104FC000E0650008B8670008B5F7D3C3D6B8B6A83F
:104FD000B5C4BBD8B5F7BAAFCAFDA3ACBCB4D1D386
:104FE000B3D9B5F7D3C3B9A6C4DC0D0A00000000DD
:104FF0006C6700085369676E616C202020202020B8
:1050000020202020202020202020202020202020A0
:10501000202020202020202020202020A3BA202073
:10502000202020D7A2B2E1D0C5BAC50D0A000000E9
:10503000636F6E6E65637420202020202020202066
:105040002020202020202020202020202020202060
:105050002020202020202020A3BA2020202020C192
:10506000ACBDD3D0C5BAC5D3EBB2DB0D0A0000008E
:105070002C66000874660008CC630008D0E9013291
:1050800001699A60D0E901235A604A68824201D1DD
:1050900082684A60002202610868401E0860086851
:1050A00070470000044908680A688069D26A096884
:1050B000C2F138028A6170471C000020034B036074
:1050C00003F15C0008608020106070475C070020DE
:1050D000044B036003F15C0008604FF480701060C3
:1050E00070470000B809002000F07ABA00F108010A
:1050F0004FF0FF32C0E90112C1600161002101607F
:10510000704700210161704730B50B685A1C02D00E
:1051100000F1080202E0026904E0224654682568B2
:105120009D42FAD953684B6099608A60516008616A
:105130000168491C016030BD42684A6093688B6019
:1051400093685960916008610168491C016070476B
:10515000502080F31188BFF34F8FBFF36F8F0A4940
:105160004868401C486001280CD10848006810F0CD
:10517000FF0F07D0502080F31188BFF34F8FBFF38C
:105180006F8FFEE7704700008800002004ED00E00C
:105190000849486828B1401E486001D180F3118851
:1051A0007047502080F31188BFF34F8FBFF36F8F8C
:1051B000FEE700008800002070B5002827D0144DBD
:1051C000A0F108046168E868014207D1502080F32B
:1051D0001188BFF34F8FBFF36F8FFEE722683AB19C
:1051E000502080F31188BFF34F8FBFF36F8FFEE71E
:1051F0008143616000F08CF9606869680844686008
:105200002046FFF7CBF9BDE8704000F0D7BE70BD77
:10521000700000204FF0E02000210161816105490C
:105220004FF47A720968B1FBF2F1491E416107211E
:10523000016170471800002010B5FAF7CDFF114941
:1052400010280ED300F1E02090F8F0030A78904285
:1052500007D2502080F31188BFF34F8FBFF36F8FB9
:10526000FEE709480068896800F4E060884207D9D1
:10527000502080F31188BFF34F8FBFF36F8FFEE78D
:1052800010BD0000880000200CED00E010B5084BB8
:10529000002200BF53F832401CB1521C082AF9D337
:1052A00010BD43F8321003EBC201486010BD00008E
:1052B0004001002070B515460E460446FFF748FF32
:1052C00094F944100020491C01D184F8440094F959
:1052D0004510491C01D184F84500FFF759FFA06B28
:1052E00028B92A46314604F1240000F051F820463E
:1052F000BDE87040FFF7ECBA10B5020014D00F48BB
:10530000806B38B1502080F31188BFF34F8FBFF30B
:105310006F8FFEE700F0FCF800211046FEF742FF19
:1053200000F04CFE002807D105494FF0805008607E
:10533000BFF34F8FBFF36F8F10BD00001C00002024
:1053400004ED00E002498A6A0260496941607047E1
:105350001C00002001490120486270471C00002009
:1053600010B50C4650B1094909681831FFF7CCFE59
:105370002046BDE810400121FEF714BF502080F305
:105380001188BFF34F8FBFF36F8FFEE71C00002023
:1053900070B514460D4668B10A4909681831FFF71F
:1053A000CBFE0CB14FF0FF3521462846BDE87040DA
:1053B000FEF7F8BE502080F31188BFF34F8FBFF384
:1053C0006F8FFEE71C00002010B51446030011D0BB
:1053D0001048826BB2B1026841F0004191610168EE
:1053E00018461831FFF7A8FE2046BDE810400121FD
:1053F000FEF7D8BE502080F31188BFF34F8FBFF364
:105400006F8FFEE7502080F31188BFF34F8FBFF3FB
:105410006F8FFEE71C00002070B5194DAA6BF2B12A
:1054200041F000410160C4680CB3FFF727FE201D66
:10543000FFF724FEE06AA969884200D9A8611149F2
:1054400000EB800001EB8000211DFFF775FEE06A94
:105450002968C96A884201D90120686270BD50205C
:1054600080F31188BFF34F8FBFF36F8FFEE750209B
:1054700080F31188BFF34F8FBFF36F8FFEE70000FB
:105480001C0000208001002030B587B00024039468
:1054900005AA04A903A80494FFF710FEDDE903019F
:1054A0000094CDE90110002315A11748059A00F0DA
:1054B0006AFC164D002868631FD000F0FBFD012830
:1054C00009D0401C19D1502080F31188BFF34F8FB1
:1054D000BFF36F8FFEE7502080F31188BFF34F8F2B
:1054E000BFF36F8F4FF0FF3028630120E8616C61DC
:1054F00007B0BDE8304000F045B907B030BD00004E
:1055000049444C4500000000394400081C000020BC
:105510000248816B491C8163704700001C00002019
:10552000164810B5816B11B10121416210BD0021F7
:1055300041628169124A01E0B9B1491E01EB810360
:1055400052F82330002BF7D001EB810302EB8302EA
:1055500002F1080453685B685360A34201D15B68A1
:105560005360DA680260816110BD502080F31188B9
:10557000BFF34F8FBFF36F8FFEE700001C000020CA
:105580008001002070B50E46040009D0300E0FD007
:10559000502080F31188BFF34F8FBFF36F8FFEE76A
:1055A000502080F31188BFF34F8FBFF36F8FFEE75A
:1055B000FFF7CEFD256825EA06002060FFF7E8FD2D
:1055C000284670BD70B52020FFF7B8F9040005D05B
:1055D0000025201D2560FFF789FD2577204670BD39
:1055E0002DE9F0410027884604000AD05FEA1860E0
:1055F0000FD0502080F31188BFF34F8FBFF36F8F10
:10560000FEE7502080F31188BFF34F8FBFF36F8FF9
:10561000FEE7261D04F10C05FFF77AFF2168F0680C
:1056200041EA0801216017E0D0E9001601F07F424D
:105630005301236821F07F4102D40B4203D10AE0D9
:1056400031EA030307D1D20100D50F43216841F0AD
:105650000071FFF7E1FE3046A842E5D12068B8436B
:10566000206000F0ABFC2068BDE8F08113460A46DC
:105670000146014800F0A0BDE95000082DE9F047BF
:105680009A46DDF8209090460D4604004FF0000742
:1056900009D0280E0FD0502080F31188BFF34F8F10
:1056A000BFF36F8FFEE7502080F31188BFF34F8F59
:1056B000BFF36F8FFEE71DB100F090FB40B112E029
:1056C000502080F31188BFF34F8FBFF36F8FFEE739
:1056D000B9F1000F07D0502080F31188BFF34F8F2E
:1056E000BFF36F8FFEE7FFF713FF26685246294688
:1056F0003046FFF7D1F830B1B8F1000F1AD020686A
:10570000A843206016E0B9F1000F13D0B8F1000FE4
:1057100001D04FF08077BAF1000F01D047F08067D9
:1057200045EA07014A46201DFFF74EFE00F046FC01
:1057300018B10AE000F042FC1FE011494FF0805020
:105740000860BFF34F8FBFF36F8FFFF7ABFC0646C8
:10575000800110D4FFF7FCFC2668524629463046EB
:10576000FFF79AF828B1B8F1000F02D02068A843DB
:105770002060FFF70DFD26F07F463046BDE8F0873C
:1057800004ED00E01CB5264908780190FF20087060
:1057900008788DF800009DF800009DF8002000F0CA
:1057A000F000904207D0502080F31188BFF34F8F54
:1057B000BFF36F8FFEE79DF800001A4B00F050001A
:1057C00018700720986005E09DF8002052008DF8C1
:1057D0000020401E9DF800201206F5D49860032892
:1057E00007D0502080F31188BFF34F8FBFF36F8F26
:1057F000FEE74FF440709860019808700A4801680D
:1058000041F470010160016841F070410160FFF7EF
:1058100001FD00205860FAF7A9FC00201CBD000023
:1058200000E400E08800002020ED00E0F8B5174615
:105830000E46050014D0DEB105FB06F05030FFF730
:105840007DF804000AD0002084F8460004F15002DC
:105850003B46314628460094FEF71EFE2046F8BD22
:10586000502080F31188BFF34F8FBFF36F8FFEE797
:105870000020E3E738B5049D18B153B1CAB181B136
:1058800020E0502080F31188BFF34F8FBFF36F8F5C
:10589000FEE7502080F31188BFF34F8FBFF36F8F67
:1058A000FEE7502080F31188BFF34F8FBFF36F8F57
:1058B000FEE739B1502080F31188BFF34F8FBFF35B
:1058C0006F8FFEE750241C46012384F846302B4698
:1058D0000094FEF7E1FD204638BD000070B50D468E
:1058E000040025D0FFF734FCD4E90F20216802FB27
:1058F000001161600021A1632168A1600A46D4E91A
:105900000F01401E00FB0121E16021464FF0FF30F6
:1059100001F8440F487004F110008DB1FFF7E6FB69
:1059200004F12400FFF7E2FBFFF732FC012070BD19
:10593000502080F31188BFF34F8FBFF36F8FFEE7C6
:1059400021690029F0D000F001FB0028ECD00449C7
:105950004FF080500860BFF34F8FBFF36F8FE3E7C6
:1059600004ED00E02DE9FF4782B01D468A464FF066
:105970000008040003D0BAF1000F08D011E0502055
:1059800080F31188BFF34F8FBFF36F8FFEE7206C5A
:1059900038B1502080F31188BFF34F8FBFF36F8F62
:1059A000FEE7022D0AD1E06B012807D0502080F3DA
:1059B0001188BFF34F8FBFF36F8FFEE700F00EFA31
:1059C0003F4F4FF000094FF0805648B9049838B166
:1059D000502080F31188BFF34F8FBFF36F8FFEE726
:1059E000FFF7B6FBA06BE16B884207D3022D05D011
:1059F0000498D0B1B8F1000F1AD01EE02A465146E3
:105A00002046FEF7A4FC616A19B104F1240000F0FD
:105A10009DFA20B13E60BFF34F8FBFF36F8FFFF74A
:105A2000B7FB012006B0BDE8F087FFF7B1FB22E02D
:105A30006846FFF787FC4FF00108FFF7A9FBFFF767
:105A400067FDFFF785FB94F94400401C01D184F801
:105A5000449094F94500401C01D184F84590FFF72B
:105A600097FB04A9684600F027F930B12046FEF7FD
:105A70002FFF00F0A3FA0020D4E7FFF769FBA06B2B
:105A8000E16B884213D1FFF783FB04F11000049906
:105A9000FFF766FC2046FEF71BFF00F08FFA002898
:105AA0009ED13E60BFF34F8FBFF36F8F98E7FFF734
:105AB0006FFB2046FEF70CFF00F080FA90E7000035
:105AC00004ED00E02DE9F0471F46904689460400AA
:105AD00003D0B9F1000F08D011E0502080F31188F5
